{
  "transactions": [
    {
      "hash": "0x631167a9d7d04ae891d16db5d24536bb6fe82a75b50a1b1fc04b491e99e9aff0",
      "transactionType": "CALL",
      "contractName": null,
      "contractAddress": "0x8004a818bfb912233c491871b3d84c89a494bd9e",
      "function": "register(string)",
      "arguments": [
        "ipfs://QmAgentBountyProtocol"
      ],
      "transaction": {
        "from": "0x020d088990881411fb9f5db119c932ad82b79c1b",
        "to": "0x8004a818bfb912233c491871b3d84c89a494bd9e",
        "gas": "0x2cc01",
        "value": "0x0",
        "input": "0xf2c298be0000000000000000000000000000000000000000000000000000000000000020000000000000000000000000000000000000000000000000000000000000001c697066733a2f2f516d4167656e74426f756e747950726f746f636f6c00000000",
        "nonce": "0x2",
        "chainId": "0x4cef52"
      },
      "additionalContracts": [],
      "isFixedGasLimit": false
    }
  ],
  "receipts": [
    {
      "status": "0x1",
      "cumulativeGasUsed": "0x1f1d40",
      "logs": [
        {
          "address": "0x8004a818bfb912233c491871b3d84c89a494bd9e",
          "topics": [
            "0xddf252ad1be2c89b69c2b068fc378daa952ba7f163c4a11628f55a4df523b3ef",
            "0x0000000000000000000000000000000000000000000000000000000000000000",
            "0x000000000000000000000000020d088990881411fb9f5db119c932ad82b79c1b",
            "0x00000000000000000000000000000000000000000000000000000000000003cb"
          ],
          "data": "0x",
          "blockHash": "0xcfcecc7360ac8026bdc2e5f615fa88859b93504ec800509f0f9989d5d43286b3",
          "blockNumber": "0x205f3c3",
          "blockTimestamp": "0x69c5a1fd",
          "transactionHash": "0x631167a9d7d04ae891d16db5d24536bb6fe82a75b50a1b1fc04b491e99e9aff0",
          "transactionIndex": "0x9",
          "logIndex": "0x1a",
          "removed": false
        },
        {
          "address": "0x8004a818bfb912233c491871b3d84c89a494bd9e",
          "topics": [
            "0xf8e1a15aba9398e019f0b49df1a4fde98ee17ae345cb5f6b5e2c27f5033e8ce7"
          ],
          "data": "0x00000000000000000000000000000000000000000000000000000000000003cb",
          "blockHash": "0xcfcecc7360ac8026bdc2e5f615fa88859b93504ec800509f0f9989d5d43286b3",
          "blockNumber": "0x205f3c3",
          "blockTimestamp": "0x69c5a1fd",
          "transactionHash": "0x631167a9d7d04ae891d16db5d24536bb6fe82a75b50a1b1fc04b491e99e9aff0",
          "transactionIndex": "0x9",
          "logIndex": "0x1b",
          "removed": false
        },
        {
          "address": "0x8004a818bfb912233c491871b3d84c89a494bd9e",
          "topics": [
            "0xca52e62c367d81bb2e328eb795f7c7ba24afb478408a26c0e201d155c449bc4a",
            "0x00000000000000000000000000000000000000000000000000000000000003cb",
            "0x000000000000000000000000020d088990881411fb9f5db119c932ad82b79c1b"
          ],
          "data": "0x0000000000000000000000000000000000000000000000000000000000000020000000000000000000000000000000000000000000000000000000000000001c697066733a2f2f516d4167656e74426f756e747950726f746f636f6c00000000",
          "blockHash": "0xcfcecc7360ac8026bdc2e5f615fa88859b93504ec800509f0f9989d5d43286b3",
          "blockNumber": "0x205f3c3",
          "blockTimestamp": "0x69c5a1fd",
          "transactionHash": "0x631167a9d7d04ae891d16db5d24536bb6fe82a75b50a1b1fc04b491e99e9aff0",
          "transactionIndex": "0x9",
          "logIndex": "0x1c",
          "removed": false
        },
        {
          "address": "0x8004a818bfb912233c491871b3d84c89a494bd9e",
          "topics": [
            "0x2c149ed548c6d2993cd73efe187df6eccabe4538091b33adbd25fafdb8a1468b",
            "0x00000000000000000000000000000000000000000000000000000000000003cb",
            "0x2ac6109326e720d1435c0db66f7e35eda7839f52b6f1f5520a60788e132b4e39"
          ],
          "data": "0x00000000000000000000000000000000000000000000000000000000000000400000000000000000000000000000000000000000000000000000000000000080000000000000000000000000000000000000000000000000000000000000000b6167656e7457616c6c65740000000000000000000000000000000000000000000000000000000000000000000000000000000000000000000000000000000014020d088990881411fb9f5db119c932ad82b79c1b000000000000000000000000",
          "blockHash": "0xcfcecc7360ac8026bdc2e5f615fa88859b93504ec800509f0f9989d5d43286b3",
          "blockNumber": "0x205f3c3",
          "blockTimestamp": "0x69c5a1fd",
          "transactionHash": "0x631167a9d7d04ae891d16db5d24536bb6fe82a75b50a1b1fc04b491e99e9aff0",
          "transactionIndex": "0x9",
          "logIndex": "0x1d",
          "removed": false
        }
      ],
      "logsBloom": "0x00000000000000000000000000000000000000000000000000000000000000000000000080000000000000000000010000000000000000000000000000000100000000000000000000000008000000000000000000000000000000000000000000000800820000000000000008000800000000000000000000000010000000000000000000100000000000000000000080000000000000000000000000000000000000000000000040000000000000002000000000000800010000000000008000000002000000000000000000200000000000000000000000800000000020000000001000010000200000000000000000000000000000000020000084000000",
      "type": "0x2",
      "transactionHash": "0x631167a9d7d04ae891d16db5d24536bb6fe82a75b50a1b1fc04b491e99e9aff0",
      "transactionIndex": "0x9",
      "blockHash": "0xcfcecc7360ac8026bdc2e5f615fa88859b93504ec800509f0f9989d5d43286b3",
      "blockNumber": "0x205f3c3",
      "gasUsed": "0x20660",
      "effectiveGasPrice": "0x4a82db8dc",
      "from": "0x020d088990881411fb9f5db119c932ad82b79c1b",
      "to": "0x8004a818bfb912233c491871b3d84c89a494bd9e",
      "contractAddress": null
    }
  ],
  "libraries": [],
  "pending": [],
  "returns": {},
  "timestamp": 1774559743040,
  "chain": 5042002,
  "commit": null
}