{
  "transactions": [
    {
      "hash": "0x2c180b9dd51b6d8569e89c10bfe5c3527ff3aea5418df6dda433d5d9e7f58fc3",
      "transactionType": "CALL",
      "contractName": null,
      "contractAddress": "0xab9177a08d5359057b603d62ee2181ef825802c5",
      "function": "claimOptimistic(uint256)",
      "arguments": [
        "1"
      ],
      "transaction": {
        "from": "0x020d088990881411fb9f5db119c932ad82b79c1b",
        "to": "0xab9177a08d5359057b603d62ee2181ef825802c5",
        "gas": "0x31005",
        "value": "0x0",
        "input": "0x76d64fa20000000000000000000000000000000000000000000000000000000000000001",
        "nonce": "0x4",
        "chainId": "0x4cef52"
      },
      "additionalContracts": [],
      "isFixedGasLimit": false
    }
  ],
  "receipts": [
    {
      "status": "0x1",
      "cumulativeGasUsed": "0xb371f",
      "logs": [
        {
          "address": "0xab9177a08d5359057b603d62ee2181ef825802c5",
          "topics": [
            "0xdfa2a378c6a00b39f4d2b4247ba44e90a894960a78603b2bf5af5de40dbe183d",
            "0x0000000000000000000000000000000000000000000000000000000000000001",
            "0x000000000000000000000000020d088990881411fb9f5db119c932ad82b79c1b"
          ],
          "data": "0x",
          "blockHash": "0x650cccb5ff0371d9e184546664798fb27602e9a3d69fdd7425c83f5347930e5b",
          "blockNumber": "0x206167f",
          "blockTimestamp": "0x69c5b360",
          "transactionHash": "0x2c180b9dd51b6d8569e89c10bfe5c3527ff3aea5418df6dda433d5d9e7f58fc3",
          "transactionIndex": "0x5",
          "logIndex": "0x18",
          "removed": false
        },
        {
          "address": "0x1800000000000000000000000000000000000000",
          "topics": [
            "0x62f084c00a442dcf51cdbb51beed2839bf42a268da8474b0e98f38edb7db5a22",
            "0x000000000000000000000000ab9177a08d5359057b603d62ee2181ef825802c5",
            "0x000000000000000000000000020d088990881411fb9f5db119c932ad82b79c1b"
          ],
          "data": "0x0000000000000000000000000000000000000000000000000de0b6b3a7640000",
          "blockHash": "0x650cccb5ff0371d9e184546664798fb27602e9a3d69fdd7425c83f5347930e5b",
          "blockNumber": "0x206167f",
          "blockTimestamp": "0x69c5b360",
          "transactionHash": "0x2c180b9dd51b6d8569e89c10bfe5c3527ff3aea5418df6dda433d5d9e7f58fc3",
          "transactionIndex": "0x5",
          "logIndex": "0x19",
          "removed": false
        },
        {
          "address": "0xab9177a08d5359057b603d62ee2181ef825802c5",
          "topics": [
            "0x24b5efa61dd1cfc659205a97fb8ed868f3cb8c81922bab2b96423e5de1de2cb7",
            "0x0000000000000000000000000000000000000000000000000000000000000001",
            "0x000000000000000000000000020d088990881411fb9f5db119c932ad82b79c1b"
          ],
          "data": "0x0000000000000000000000000000000000000000000000000de0b6b3a7640000",
          "blockHash": "0x650cccb5ff0371d9e184546664798fb27602e9a3d69fdd7425c83f5347930e5b",
          "blockNumber": "0x206167f",
          "blockTimestamp": "0x69c5b360",
          "transactionHash": "0x2c180b9dd51b6d8569e89c10bfe5c3527ff3aea5418df6dda433d5d9e7f58fc3",
          "transactionIndex": "0x5",
          "logIndex": "0x1a",
          "removed": false
        }
      ],
      "logsBloom": "0x00000100000000000000000000000000000000000000000000000000000000000000000000002080000000000000000000000000000000000000000000060000000010000000000000000000010000000000000001040000000000000000000000000800000000000000000000000000004000000000000020000000000000000040000004000800000000000000000000000000040000000000000000000020000000000000000000000000000000008000002000000000000000000000000000000000000000004000000800200000000000000000000000000000000040000000000000000000000000000000000000000000000000000020000000000000",
      "type": "0x2",
      "transactionHash": "0x2c180b9dd51b6d8569e89c10bfe5c3527ff3aea5418df6dda433d5d9e7f58fc3",
      "transactionIndex": "0x5",
      "blockHash": "0x650cccb5ff0371d9e184546664798fb27602e9a3d69fdd7425c83f5347930e5b",
      "blockNumber": "0x206167f",
      "gasUsed": "0x2379f",
      "effectiveGasPrice": "0x4a82e289a",
      "from": "0x020d088990881411fb9f5db119c932ad82b79c1b",
      "to": "0xab9177a08d5359057b603d62ee2181ef825802c5",
      "contractAddress": null
    }
  ],
  "libraries": [],
  "pending": [],
  "returns": {},
  "timestamp": 1774564194068,
  "chain": 5042002,
  "commit": null
}