{
  "transactions": [
    {
      "hash": "0xc7e383e13461e922296f22b480f6522f4d0a04b04bff7da2c063ba67e9a27a7f",
      "transactionType": "CALL",
      "contractName": null,
      "contractAddress": "0xab9177a08d5359057b603d62ee2181ef825802c5",
      "function": "createBounty(bytes32,uint256,uint8,address,uint256)",
      "arguments": [
        "0x76e4648b1779bfb80a4b2f0792963d88e39f1b00eede91c40ac689eec0c5ba59",
        "1774818824",
        "1",
        "0x020D088990881411Fb9f5db119C932Ad82B79c1b",
        "3600"
      ],
      "transaction": {
        "from": "0x020d088990881411fb9f5db119c932ad82b79c1b",
        "to": "0xab9177a08d5359057b603d62ee2181ef825802c5",
        "gas": "0x3e461",
        "value": "0xde0b6b3a7640000",
        "input": "0xc82cdb2a76e4648b1779bfb80a4b2f0792963d88e39f1b00eede91c40ac689eec0c5ba590000000000000000000000000000000000000000000000000000000069c996080000000000000000000000000000000000000000000000000000000000000001000000000000000000000000020d088990881411fb9f5db119c932ad82b79c1b0000000000000000000000000000000000000000000000000000000000000e10",
        "nonce": "0x1",
        "chainId": "0x4cef52"
      },
      "additionalContracts": [],
      "isFixedGasLimit": false
    }
  ],
  "receipts": [
    {
      "status": "0x1",
      "cumulativeGasUsed": "0x1be016",
      "logs": [
        {
          "address": "0x1800000000000000000000000000000000000000",
          "topics": [
            "0x62f084c00a442dcf51cdbb51beed2839bf42a268da8474b0e98f38edb7db5a22",
            "0x000000000000000000000000020d088990881411fb9f5db119c932ad82b79c1b",
            "0x000000000000000000000000ab9177a08d5359057b603d62ee2181ef825802c5"
          ],
          "data": "0x0000000000000000000000000000000000000000000000000de0b6b3a7640000",
          "blockHash": "0xc74a87084db361bec2646d61ff413f6dd9de8c10dd7be3aba40f0ea274d55abb",
          "blockNumber": "0x205f2e2",
          "blockTimestamp": "0x69c5a18d",
          "transactionHash": "0xc7e383e13461e922296f22b480f6522f4d0a04b04bff7da2c063ba67e9a27a7f",
          "transactionIndex": "0x4",
          "logIndex": "0xd",
          "removed": false
        },
        {
          "address": "0xab9177a08d5359057b603d62ee2181ef825802c5",
          "topics": [
            "0x4d90dfff99bcd582dd8c7502b37e53bacdb3f8f07422571bf4adcc5e90b5b547",
            "0x0000000000000000000000000000000000000000000000000000000000000001",
            "0x000000000000000000000000020d088990881411fb9f5db119c932ad82b79c1b"
          ],
          "data": "0x0000000000000000000000000000000000000000000000000de0b6b3a76400000000000000000000000000000000000000000000000000000000000000000001",
          "blockHash": "0xc74a87084db361bec2646d61ff413f6dd9de8c10dd7be3aba40f0ea274d55abb",
          "blockNumber": "0x205f2e2",
          "blockTimestamp": "0x69c5a18d",
          "transactionHash": "0xc7e383e13461e922296f22b480f6522f4d0a04b04bff7da2c063ba67e9a27a7f",
          "transactionIndex": "0x4",
          "logIndex": "0xe",
          "removed": false
        }
      ],
      "logsBloom": "0x00000100000000000000000000000000000000000000000000000000000000000000000000002000000000000000000000000000000000000000000000060000000000000000000000000000000000000000000001040000000000000000000000000800000000000000000000000000000000000000000020000000000000000040000004000000000000000000000000000000040000000000000000000000000000000000000000000000000000008000802000000020000000000000000000000000000000004000000800200000000000000000000000000000000040000000000000000000000000000000000000400000000000000020000000000000",
      "type": "0x2",
      "transactionHash": "0xc7e383e13461e922296f22b480f6522f4d0a04b04bff7da2c063ba67e9a27a7f",
      "transactionIndex": "0x4",
      "blockHash": "0xc74a87084db361bec2646d61ff413f6dd9de8c10dd7be3aba40f0ea274d55abb",
      "blockNumber": "0x205f2e2",
      "gasUsed": "0x2d15d",
      "effectiveGasPrice": "0x4a8286272",
      "from": "0x020d088990881411fb9f5db119c932ad82b79c1b",
      "to": "0xab9177a08d5359057b603d62ee2181ef825802c5",
      "contractAddress": null
    }
  ],
  "libraries": [],
  "pending": [],
  "returns": {},
  "timestamp": 1774559630412,
  "chain": 5042002,
  "commit": null
}