{
  "transactions": [
    {
      "hash": "0x0f5466c540ba7a1501c9f4f4be8362f78c9a6182e53a5e779483030c037fe270",
      "transactionType": "CALL",
      "contractName": null,
      "contractAddress": "0xab9177a08d5359057b603d62ee2181ef825802c5",
      "function": "createBounty(bytes32,uint256,uint8,address,uint256)",
      "arguments": [
        "0x000000000000000000000000020d088990881411fb9f5db119c932ad82b79c1b",
        "1775219528",
        "1",
        "0x020D088990881411Fb9f5db119C932Ad82B79c1b",
        "3600"
      ],
      "transaction": {
        "from": "0x020d088990881411fb9f5db119c932ad82b79c1b",
        "to": "0xab9177a08d5359057b603d62ee2181ef825802c5",
        "gas": "0x38767",
        "value": "0xde0b6b3a7640000",
        "input": "0xc82cdb2a000000000000000000000000020d088990881411fb9f5db119c932ad82b79c1b0000000000000000000000000000000000000000000000000000000069cfb3480000000000000000000000000000000000000000000000000000000000000001000000000000000000000000020d088990881411fb9f5db119c932ad82b79c1b0000000000000000000000000000000000000000000000000000000000000e10",
        "nonce": "0x6",
        "chainId": "0x4cef52"
      },
      "additionalContracts": [],
      "isFixedGasLimit": false
    }
  ],
  "receipts": [
    {
      "status": "0x1",
      "cumulativeGasUsed": "0x2cfa9d",
      "logs": [
        {
          "address": "0x1800000000000000000000000000000000000000",
          "topics": [
            "0x62f084c00a442dcf51cdbb51beed2839bf42a268da8474b0e98f38edb7db5a22",
            "0x000000000000000000000000020d088990881411fb9f5db119c932ad82b79c1b",
            "0x000000000000000000000000ab9177a08d5359057b603d62ee2181ef825802c5"
          ],
          "data": "0x0000000000000000000000000000000000000000000000000de0b6b3a7640000",
          "blockHash": "0xd0eb6b3979cf5cb8297c5c04e966c6adc2569381aef4add3745d6fad232a2520",
          "blockNumber": "0x207a09e",
          "blockTimestamp": "0x69c678ce",
          "transactionHash": "0x0f5466c540ba7a1501c9f4f4be8362f78c9a6182e53a5e779483030c037fe270",
          "transactionIndex": "0xe",
          "logIndex": "0x3e",
          "removed": false
        },
        {
          "address": "0xab9177a08d5359057b603d62ee2181ef825802c5",
          "topics": [
            "0x4d90dfff99bcd582dd8c7502b37e53bacdb3f8f07422571bf4adcc5e90b5b547",
            "0x0000000000000000000000000000000000000000000000000000000000000002",
            "0x000000000000000000000000020d088990881411fb9f5db119c932ad82b79c1b"
          ],
          "data": "0x0000000000000000000000000000000000000000000000000de0b6b3a76400000000000000000000000000000000000000000000000000000000000000000001",
          "blockHash": "0xd0eb6b3979cf5cb8297c5c04e966c6adc2569381aef4add3745d6fad232a2520",
          "blockNumber": "0x207a09e",
          "blockTimestamp": "0x69c678ce",
          "transactionHash": "0x0f5466c540ba7a1501c9f4f4be8362f78c9a6182e53a5e779483030c037fe270",
          "transactionIndex": "0xe",
          "logIndex": "0x3f",
          "removed": false
        }
      ],
      "logsBloom": "0x04000100000000000000000000000000000000000000000000000000000000000000000000002000000000000000000000000000000000000000000000020000000000000000000000000000000000000000000001000000000000000000000000000800000000000000000000000000000000000000000020000000000000000040000004000000000000000000000000000000040000000000000000000000000000000000000000000100000000008000802000000020000000000000000000000000000000004000000800200000000000000000000000000000000000000000000000000000000000000000000000400000008000000020000000000000",
      "type": "0x2",
      "transactionHash": "0x0f5466c540ba7a1501c9f4f4be8362f78c9a6182e53a5e779483030c037fe270",
      "transactionIndex": "0xe",
      "blockHash": "0xd0eb6b3979cf5cb8297c5c04e966c6adc2569381aef4add3745d6fad232a2520",
      "blockNumber": "0x207a09e",
      "gasUsed": "0x28e0d",
      "effectiveGasPrice": "0x4a8354587",
      "from": "0x020d088990881411fb9f5db119c932ad82b79c1b",
      "to": "0xab9177a08d5359057b603d62ee2181ef825802c5",
      "contractAddress": null
    }
  ],
  "libraries": [],
  "pending": [],
  "returns": {},
  "timestamp": 1774614735660,
  "chain": 5042002,
  "commit": null
}