{
  "transactions": [
    {
      "hash": "0x2f4cc59fe4985b5952185cc8fcd99ee0a631584d5cf7c28e9e82383575b9386d",
      "transactionType": "CALL",
      "contractName": null,
      "contractAddress": "0xab9177a08d5359057b603d62ee2181ef825802c5",
      "function": "submitResult(uint256,bytes32)",
      "arguments": [
        "1",
        "0x22b851c24d0fe70d5df4f1e73f159f877313364d3fc59c0c66efe1392e2f24a3"
      ],
      "transaction": {
        "from": "0x020d088990881411fb9f5db119c932ad82b79c1b",
        "to": "0xab9177a08d5359057b603d62ee2181ef825802c5",
        "gas": "0x3efe8",
        "value": "0x0",
        "input": "0xd2ee66cf000000000000000000000000000000000000000000000000000000000000000122b851c24d0fe70d5df4f1e73f159f877313364d3fc59c0c66efe1392e2f24a3",
        "nonce": "0x3",
        "chainId": "0x4cef52"
      },
      "additionalContracts": [],
      "isFixedGasLimit": false
    }
  ],
  "receipts": [
    {
      "status": "0x1",
      "cumulativeGasUsed": "0x138275",
      "logs": [
        {
          "address": "0xab9177a08d5359057b603d62ee2181ef825802c5",
          "topics": [
            "0x9bb2295443670abcb0f3088e52668e961eca6816b19f155f2fca528c4b2fe345",
            "0x0000000000000000000000000000000000000000000000000000000000000001",
            "0x000000000000000000000000020d088990881411fb9f5db119c932ad82b79c1b"
          ],
          "data": "0x22b851c24d0fe70d5df4f1e73f159f877313364d3fc59c0c66efe1392e2f24a3",
          "blockHash": "0x76e63331c5763ed1fa08cf46bcf20e70190823830dd12e88ca527ce2772445e1",
          "blockNumber": "0x205f3ec",
          "blockTimestamp": "0x69c5a212",
          "transactionHash": "0x2f4cc59fe4985b5952185cc8fcd99ee0a631584d5cf7c28e9e82383575b9386d",
          "transactionIndex": "0x9",
          "logIndex": "0x30",
          "removed": false
        }
      ],
      "logsBloom": "0x00000000000000000000000000000000000000000000000000000000000000000000000000002000000000000000000000000000000000000000000000040000000000000000000000100000000000000000000000040000000000000000000000000800000000000000000000000000000000000000000020000000000000000000000000000000000000001000000000000000000000000000000000000000000000000000000000000000000000000000000000000000000000000000000000000000000000000000000800200000000000000080000000000000000040000000000000000000000000000000000000000000000000000020000000000000",
      "type": "0x2",
      "transactionHash": "0x2f4cc59fe4985b5952185cc8fcd99ee0a631584d5cf7c28e9e82383575b9386d",
      "transactionIndex": "0x9",
      "blockHash": "0x76e63331c5763ed1fa08cf46bcf20e70190823830dd12e88ca527ce2772445e1",
      "blockNumber": "0x205f3ec",
      "gasUsed": "0x2b12b",
      "effectiveGasPrice": "0x4a832e7d5",
      "from": "0x020d088990881411fb9f5db119c932ad82b79c1b",
      "to": "0xab9177a08d5359057b603d62ee2181ef825802c5",
      "contractAddress": null
    }
  ],
  "libraries": [],
  "pending": [],
  "returns": {},
  "timestamp": 1774559763257,
  "chain": 5042002,
  "commit": null
}